:0200000470107A
:1004000000001034DD3F1070D93D1070DD3D1070DC
:10041000ED3D1070FD3D10700D3E10701D3E1070D2
:100420000000000000000000000000002D3E1070E1
:100430002F3E107000000000313E1070333E1070EF
:1004400039401070000000003940107039401070C1
:1004500039401070394010703940107039401070B8
:1004600039401070000000003940107039401070A1
:100470003940107039401070394010700000000091
:100480003940107000000000394010703940107081
:100490003940107039401070394010703940107078
:1004A0003940107039401070394010703940107068
:1004B0003940107039401070394010703940107058
:1004C0003940107039401070394010703940107048
:1004D000000000000000000039401070394010702A
:1004E0003940107000000000000000000000000013
:1004F000000000000000000039401070453E107000
:10050000513E1070000000000000000000000000DC
:100510003940107099431170394010703940107093
:1005200039401070394010703940107039401070E7
:1005300039401070394010703940107039401070D7
:1005400039401070394010703940107039401070C7
:1005500039401070394010703940107039401070B7
:1005600039401070394010703940107039401070A7
:100570003940107039401070394010703940107097
:100580003940107039401070394010703940107087
:100590003940107039401070394010703940107077
:1005A0003940107039401070394010703940107067
:1005B0003940107039401070394010703940107057
:1005C0003940107039401070394010703940107047
:1005D0003940107039401070394010703940107037
:1005E0003940107039401070394010703940107027
:1005F0003940107039401070394010703940107017
:100600003940107039401070394010703940107006
:1006100039401070394010703940107039401070F6
:1006200039401070394010703940107039401070E6
:1006300039401070394010703940107039401070D6
:1006400039401070394010703940107039401070C6
:1006500039401070394010703940107039401070B6
:1006600039401070394010703940107039401070A6
:100670003940107039401070394010703940107096
:100680003940107039401070394010703940107086
:100690003940107039401070394010703940107076
:1006A0003940107039401070394010703940107066
:1006B000394010703940107039401070393E107058
:1006C0003940107039401070394010703940107046
:1006D0003940107039401070394010703940107036
:1006E0003940107039401070394010703940107026
:1006F0003940107039401070394010703940107016
:100700003940107039401070394010703940107005
:1007100039401070394010703940107039401070F5
:1007200039401070394010703940107039401070E5
:1007300039401070394010703940107039401070D5
:0C074000000000003940107039401070BB
:1007500010B5054C237833B9044B13B10448AFF3FB
:1007600000800123237010BD00040034000000004D
:100770009C9D127008B5034B1BB103490348AFF3AE
:10078000008008BD00000000040400349C9D12702D
:1007900090EDAD6A30B52DED108B90EDA87BB5EEE8
:1007A000C06A87B08DED027B002390EDA47BF1EE53
:1007B00010FA91ED015A91ED004A91ED02FB91ED95
:1007C00004EB044690ED123B90EDAACB90ED16ABF6
:1007D0008DED047B90EDA6BB80F8603009DCD0F88D
:1007E000C832D14898474FF0FF3007B0BDEC108BAE
:1007F00030BDB8EE455B9FEDBE7BB8EE444B25EEB9
:10080000077BB4EEC47BF1EE10FA0FDD90ED1C7B9C
:100810009FEDB92B37EE022B9FEDB97BB4EEC72BC2
:10082000F1EE10FA37FE027B80ED1C7B9FEDB67B6C
:1008300025EE075BB4EEC45BF1EE10FA10D594ED33
:100840001C7B9FEDAD5B37EE457B9FEDB15BB4EE5E
:10085000C57BF1EE10FA58BFB0EE475B84ED1C5B30
:1008600083EE0C8BBCEEC88BB8EE488B94F85050DE
:1008700028EE0C8B012DB7EEC66A40F0AC809FEDE0
:10088000A67B3FEE4E5B85EE07DB3FEE0E5B85EE13
:10089000079BB0EECD7BB4EEC76BF1EE10FAB0EE75
:1008A000C95B1FDBB4EEC56BF1EE10FA1ADB002357
:1008B00084F8783094ED1A7BB5EEC07BF1EE10FA37
:1008C00040F33481012384F860309DED027BB4EE67
:1008D000C7ABF1EE10FA40F13C819DED047B3AEE9E
:1008E00007BB28E1B4EEC56BF1EE10FA0CD589EE2A
:1008F0000D5B94EDAE6AB0EEC55BB7EEC66AB4EEC2
:10090000C65BF1EE10FAD5DAF7EECA0BB7EEC70BFD
:1009100027F06AFBB2EE047BB7EEC00A20EE070BAD
:10092000FCEEC87BB0EECE6BCDED017AB0EECF7BA6
:10093000B4EEC67BF1EE10FA62DCB5EEC0EBF1EE80
:1009400010FA62D538EE000B94ED3C7BB4EEC07B20
:10095000F1EE10FA03D5B0EE4BABB0EE470B94EDD1
:100960003A7BB4EEC07BF1EE10FA03DDB0EE4BAB98
:10097000B0EE470B80EE0C8BBCEEC88BB8EE488B0C
:10098000012D2CEE088B16D1B4F8E030022B3FD8A5
:10099000DDED017AB8EE677B04EBC30282ED207BCC
:1009A00082ED268B04EB0312013382ED2CDB82ED0A
:1009B0002E9BA4F8E03094F87830012B07D0FCEEA1
:1009C000C87B17EE903A019A93423FF473AF01232C
:1009D00084F860306EE7B0EECF7BB0EECE5BB4EE65
:1009E000475BF1EE10FA35FE077BB4EEC67BF1EE05
:1009F00010FA7FF65FAF9FED4A9BB0EE49DB83E7CD
:100A0000B5EEC0FBF1EE10FA9CD538EE400B9BE73B
:100A100094ED2A7B94EDAF6A38EE477BB7EEC66A59
:100A2000B0EEC77BB4EEC67BF1EE10FA56DB94ED68
:100A3000287B38EE477BB0EEC77BB4EEC76BF1EE98
:100A400010FA4BDD94ED320B94ED307B39EE400B18
:100A50003DEE477B20EE000BA7EE070B25F020FFB5
:100A600094EDB07AB7EEC77AB4EEC70BF1EE10FA98
:100A700034D5DDED017AB8EE678B84F8785094F8C0
:100A80007830002B97D1102204F1880104F1800006
:100A900023F0BCFE102204F1A00104F1980023F021
:100AA000B5FED4E93023DDED017AB8EE677BC4E909
:100AB0002C23D4E9322384ED247BC4E92E23D4E90A
:100AC000342384ED2A8BC4E93023D4E9362384ED22
:100AD00034DB84ED369BC4E932236CE794F878303C
:100AE000012B04BF002384F87830C8E7AFF30080FF
:100AF0009A9999999999A93F7B14AE47E17A843FD5
:100B0000343333333333C33F333333333333C33F7C
:100B1000111111111111B13FCD3B7F669EA0F63F1F
:100B200000000000000000008213137094F8603091
:100B3000002B7FF4CAAE88EE0C7BBCEEC77BB8EE10
:100B4000477B27EE0C7B84ED16BB84ED127B0120E6
:100B50004BE69DED02BBEEE790ED1A6BB5EEC06B78
:100B600090ED124BF1EE10FA90EDAA5BB0EE467BE1
:100B7000DFBF84EE057BBCEEC77BB8EE477B27EE7C
:100B8000057BB7EEC77B90ED3C5BB7EEC74AB4EE92
:100B9000C54BF1EE10FAC8BFB7EEC57B90ED3A5BDE
:100BA000B7EEC74AB4EEC54BF1EE10FA48BFB7EE48
:100BB000C57BB7EEC75AD0F8743230B580ED125B02
:100BC00093ED005AD0EDAC7AB4EEC75AF1EE675A05
:100BD000F1EE10FA4FF00001B0F8F83075FEA77A88
:100BE000013B8AB2934205D8442202FB030303F57A
:100BF000907311E000EB8204D4ED445A77EEA55ACD
:100C0000F4EEC75AF1EE10FA01F10101E9DB4423D9
:100C100003FB020202F59073B5EEC06BF1EE10FA21
:100C2000C0F8743205DC93ED007AB7EEC77A80ED38
:100C3000127B5A6803F1380142609A6803F1240478
:100C40008260DA68C2601A69026100F138025D6987
:100C50000C334561DD680C30C5601D69A342056138
:100C600051F8045B42F8045BF1D1012030BD10B5AE
:100C7000044690B070B10023084C40212370C4F8A2
:100C8000C802074B6846074A23F082FC6846D4F83E
:100C9000C8329847204610B010BD00BF2004003471
:100CA000E0301770C2131370002814BF01204FF0FA
:100CB000FF30704780ED000A30B50C6844604C6826
:100CC00084608C68C460C96802F12404016100F189
:100CD000380115680C32456152F8085C0C30C5606B
:100CE00052F8045CA242056153F8045B41F8045BCE
:100CF000EFD130BD2DE9F04F2DED068B0E46B0EE55
:100D0000409BB0EE418B1D460446C7B0002800F062
:100D10008F819FEDCBAB80ED12AB0020CE494FF021
:100D20000008C4E91601C4E9A601C4E9AA01CB4937
:100D3000DFF85C93C4F8B0124FF07E51C4F8B412DF
:100D40004FF07C51C4E91A890FF2FC29D9E90089D6
:100D5000C4E91C89C4E9A4894FF00008C4F8B8129A
:100D6000BF49DFF83093C4F8BC124FF07F51002325
:100D7000C4E9A88901274FF00008C4F8C012711E09
:100D8000DFF8149388B20428C4E9A0890FF2C029BF
:100D9000D9E9008984F86030C4E9A289A4F8E03078
:100DA00084F87830A4F8787214D905234FF4807150
:100DB000AC4A06A823F0ECFBD4F8C83206A8984742
:100DC00084F85070204647B0BDEC068BBDE8F04F6C
:100DD000FFF7C2BE95ED007AB7EEC77AB4EEC70B47
:100DE000F1EE10FA12DDD4F8C8329F48984795ED1D
:100DF000007AB7EEC77A8DED009B8DED027B9B4AA2
:100E00004FF4807106A823F0C3FBD5E74FF0440CE4
:100E10000CFB065818ED117AB7EEC77AB4EEC71B73
:100E2000F1EE10FA41D5D4F8C8329148984798EDC0
:100E3000007AB7EEC77A8DED008B8DED027B8D4A7F
:100E4000DEE70CFB08F705EB070944372F4499ED63
:100E5000007AD7ED007AB4EEE77AF1EE10FA08F1F5
:100E6000010A00F1010021DBD4F8C832824898471A
:100E700097ED007AB7EEC77A8DED047BCDF808A028
:100E800099ED007AB7EEC77A43468DED007B7B4A39
:100E90004FF4807106A823F07BFBD4F8C83206A873
:100EA0009847012384F850308CE718461FFA80F8E1
:100EB0004145C6D800234FF0440CB01E9FB2B94242
:100EC00039D884ED3A9B84ED3C8B0020A4F8F8607F
:100ED00083B2994200F1010000F28B800027B846EE
:100EE00004F1FC0A04F5907905EB070B09EB070008
:100EF0004422594623F047FFDBF8003008F101088F
:100F00004AF8043B1FFA88F39E4207F14407EBD8E6
:100F1000731E9BB2002E03F1010314BF1A46012277
:100F2000C4F8749204F5B271013A6AD1012384F8CD
:100F30005030237046E702EB8709B842D9ED007ABA
:100F40004FEA870807F1010A1ED908F10408904406
:100F500098ED007AB4EEE77AF1EE10FA14D8D4F8EE
:100F6000C8324748984798ED007AB7EEC77A8DEDBA
:100F7000047BCDF808A099ED007AB7EEC77A3B461E
:100F80008DED007B3F4A83E70CFB07F805EB080A71
:100F90009AED007AB4EEE77AF1EE10FA08F144081F
:100FA000A84408DA98ED007AB4EEE77AF1EE10FA88
:100FB00003F1010382D8D4F8C8323348984798ED3A
:100FC000007AB7EEC77A8DED047B9AED007AB7EE22
:100FD000C77A8DED027B99ED007AB7EEC77A3B4672
:100FE0008DED007B4FF48071284A06A823F0D0FADB
:100FF00053E702EB83073F6804EB8303C3F81071E8
:1010000066E7D4F8743291ED006A93ED007AB7EE9A
:10101000C66AB7EEC77A36EE4A6B37EE4A7BB4EE55
:10102000C76BF1EE10FA48BFC4F8741244317BE785
:101030004FF0FF3047B0BDEC068BBDE8F08F00BF2E
:10104000000000000088B3409A9999999999B93F96
:101050000000000000A06E400000F03F0000484289
:1010600000002F43D2131370161413709D141370C5
:10107000FB14137083151370E0151370441613706E
:101080009C1613700B17137075171370CC17137011
:101090000000F0BF000008400000244030B50546C5
:1010A00014468DB052B9D0F8C8321D489847D5F8CB
:1010B000C8321C48984720460DB030BD93ED042B34
:1010C00093ED021B93ED000B0AAA08A906A800F0F5
:1010D0002FF8DDE90823CDE90223DDE90A23CDE974
:1010E0000423012398420446CDE90033DFD1694649
:1010F0002846FFF74DFB0128044603D0D5F8C83237
:101100000948D7E795F86030012BD4D12846FFF77E
:1011100023FD01280446CED0D5F8C8320348C9E7DC
:1011200052181370B3181370DC1813701019137061
:10113000B5EEC00BF1EE10FA1FB509D4B5EEC01B29
:10114000F1EE10FA04D4B5EEC02BF1EE10FA0DD585
:101150008DED022B8DED001B53EC102B444823F03A
:10116000F3F84FF0FF3005B05DF804FB9FED327BE4
:10117000B4EEC70BF1EE10FA09DCB4EEC71BF1EECA
:1011800010FA04DCB4EEC72BF1EE10FA07DD8DED9A
:10119000022B8DED001B53EC102B3648DFE728B1F6
:1011A00089B1B2B93449354B084607E071B13349CA
:1011B0003148002A304A314B18BF134602463048A6
:1011C00023F0C2F8CDE72C492C48F2E72B4908461A
:1011D000EFE79FED1B7B9FED1C6B21EE077BB3EED2
:1011E000005BA0EE067B9FED1A6BA2EE057BA7EEDF
:1011F000065B9FED197B80ED005B27EE417BBBEE2C
:101200000A5BA0EE057B9FED165BA2EE057B27EE49
:10121000067B81ED007B9FED147B27EE411BB2EE38
:10122000047BA0EE051BA2EE471B21EE061B01204E
:1012300082ED001B97E700BF0000000000E06F4058
:101240000000000000A06340000000000080474054
:10125000000000000000703F0000000000805540CA
:101260000000000000005C400000000000805940C9
:101270004D1913708B19137047191370451913709A
:10128000CB1913700000000010B5044690B060B197
:101290000023074C40212370A065064B6846064A90
:1012A00023F076F96846A36D9847204610B010BD2C
:1012B000F0060034E6301770151A1370002814BFBA
:1012C00001204FF0FF30704738220A23C0E9042381
:1012D00064232D227821C0E9063240F2DC5230B579
:1012E000C0E9081241F2707442F6E062C0E90A42B5
:1012F0000BA5D5E9004505224FF0000C026548F228
:10130000E802C0E910C20122C0E90C4506A5D5E9F2
:101310000045C0E91223C0E90E4530BDAFF300809F
:1013200000000040E17A943F000000E04D62703F11
:1013300010B5044620B1FFF7C7FF0120207010BD93
:101340004FF0FF30FBE72DE9F0410E460446002840
:1013500000F0E180017801290BD102210170A56C18
:10136000C4E90126B54208D2616C914205D9A56055
:101370004CE00229F3D0002049E0D4F810C0B6EECA
:10138000005B07EE90CAB8EE676A07EE903AB8EED7
:10139000E77BB7EEC66A37EE057B86EE070B216D5D
:1013A000B7EEC00B8B424BD2F0EE007AB4EEE70AF8
:1013B000F1EE10FA44D4616CB7EE007A8A4220D282
:1013C000012A134638BF012307EE903AF8EEE77A78
:1013D00067EE807AFDEEE77A17EE903A8B42C1BF56
:1013E00007EE901AB8EEE76A07EE902AF8EE676A01
:1013F000C3BFC6EE267A0B4680EE270AB0EE470A38
:101400006360B4EEC70AF1EE10FA02DC0120BDE819
:10141000F081B7EEC00A25F00FFAB3EE047B20EEA0
:10142000070B9FED3F7B20EE070BBDEEC00B10EED0
:10143000103AE26C33449342D4BFA360A260E5E764
:10144000ACEB0307E16987EAE770A0EBE77088423D
:1014500047D8606AD4F814E0A1690EEB0C089845EF
:1014600007FB01F143D207EE900A9FED2F7AF8EEC9
:10147000E77A67EE877A07EE101AF1EE676AB8EE40
:10148000C77AB4EEE67AF1EE10FA04D5FDEEE77A0B
:1014900017EE903A59420029B8D0B54232D1606C6B
:1014A000904201D800292DDA02FB077707EE902A37
:1014B00006EE907A0029B8EEE77BB8EEE66B1EDA0E
:1014C00094ED0E5BA5EE067BBDEEC77B17EE102AF2
:1014D000236C9A42B8BF1A468242D4BF62606060F1
:1014E00094E7216A88422CBFE06AA06AB2E7ACEBBD
:1014F0000E0C9C458ADD8142A8BF0146CBE794EDE6
:101500000C5BDFE70E44B5423FF731AFE56CB54207
:10151000A8BF35462BE74FF0FF3078E7AFF30080E8
:101520000000000000408F409A99593F10F8012BAD
:1015300011F8013B012A28BF9A42F7D0D01A704710
:10154000034613F8012B002AFBD1181A0138704703
:1015500081F0004102E000BF83F0004330B54FEA64
:1015600041044FEA430594EA050F08BF90EA020FD1
:101570001FBF54EA000C55EA020C7FEA645C7FEA64
:10158000655C00F0E2804FEA5454D4EB5555B8BF87
:101590006D420CDD2C4480EA020281EA030382EAF8
:1015A000000083EA010180EA020281EA0303362D8A
:1015B00088BF30BD11F0004F4FEA01314FF4801C5D
:1015C0004CEA113102D0404261EB410113F0004F6F
:1015D0004FEA03334CEA133302D0524263EB430326
:1015E00094EA050F00F0A780A4F10104D5F1200EC4
:1015F0000DDB02FA0EFC22FA05F2801841F100011F
:1016000003FA0EF2801843FA05F359410EE0A5F1F2
:1016100020050EF1200E012A03FA0EFC28BF4CF023
:10162000020C43FA05F3C01851EBE37101F00045D9
:1016300007D54FF0000EDCF1000C7EEB00006EEBE6
:101640000101B1F5801F1BD3B1F5001F0CD3490870
:101650005FEA30004FEA3C0C04F101044FEA4452C7
:1016600012F5800F80F09A80BCF1004F08BF5FEA4E
:10167000500C50F1000041EB045141EA050130BD2E
:101680005FEA4C0C404141EB0101013C28BFB1F540
:10169000801FE9D291F0000F04BF01460020B1FA8B
:1016A00081F308BF2033A3F10B03B3F120020CDA5E
:1016B0000C3208DD02F1140CC2F10C0201FA0CF03C
:1016C00021FA02F10CE002F11402D8BFC2F1200CA1
:1016D00001FA02F120FA0CFCDCBF41EA0C01904057
:1016E000E41AA2BF01EB0451294330BD6FEA0404A0
:1016F0001F3C1CDA0C340EDC04F11404C4F120028B
:1017000020FA04F001FA02F340EA030021FA04F39C
:1017100045EA030130BDC4F10C04C4F1200220FAF3
:1017200002F001FA04F340EA0300294630BD21FA31
:1017300004F0294630BD94F0000F83F4801306BFF7
:1017400081F480110134013D4EE77FEA645C18BFEB
:101750007FEA655C29D094EA050F08BF90EA020F82
:1017600005D054EA000C04BF1946104630BD91EA7A
:10177000030F1EBF0021002030BD5FEA545C05D17D
:101780004000494128BF41F0004130BD14F58004BC
:101790003CBF01F5801130BD01F0004545F0FE4130
:1017A00041F470014FF0000030BD7FEA645C1ABF65
:1017B000194610467FEA655C1CBF0B46024650EA9C
:1017C000013406BF52EA033591EA030F41F40021C8
:1017D00030BD00BF90F0000F04BF0021704730B54E
:1017E0004FF4806404F132044FF000054FF0000123
:1017F00050E700BF90F0000F04BF0021704730B5E4
:101800004FF4806404F1320410F0004548BF4042B8
:101810004FF000013EE700BF42004FEAE2014FEA0D
:1018200031014FEA02701FBF12F07F4393F07F4FE8
:1018300081F06051704732F07F4208BF704793F0EB
:101840007F4F04BF41F40021704730B54FF46074FE
:1018500001F0004521F000411CE700BF50EA010201
:1018600008BF704730B54FF000050AE050EA0102AA
:1018700008BF704730B511F0004502D5404261EB1A
:1018800041014FF4806404F132045FEA915C3FF45B
:10189000D8AE4FF003025FEADC0C18BF03325FEAF8
:1018A000DC0C18BF033202EBDC02C2F1200300FAA9
:1018B00003FC20FA02F001FA03FE40EA0E0021FACE
:1018C00002F11444BDE600BF7BB972B90029BEBF66
:1018D00000204FF0004106E008BF00281CBF6FF059
:1018E00000414FF0FF3000F0FDB9ADF1080C6DE99B
:1018F00004CE002909DB002B1ADB00F04DF8DDF8DF
:1019000004E0DDE9022304B07047404261EB41018D
:10191000002B1BDB00F040F8DDF804E0DDE90223DA
:1019200004B0404261EB4101524263EB4303704714
:10193000524263EB430300F02FF8DDF804E0DDE9E9
:10194000022304B0404261EB41017047524263EB15
:10195000430300F021F8DDF804E0DDE9022304B0E0
:10196000524263EB4303704753B94AB9002908BF99
:1019700000281CBF4FF0FF314FF0FF3000F0B2B92C
:10198000ADF1080C6DE904CE00F006F8DDF804E0D6
:10199000DDE9022304B070472DE9F04F8C46099E23
:1019A00004460F46002B48D18A4215465ED9B2FA4A
:1019B00082F33BB1C3F120029F409D409C4020FA3E
:1019C00002F217434FEA154E1FFA85FC220CB7FBB3
:1019D000FEF10EFB117701FB0CF042EA0742904248
:1019E00007D9AA1801F1FF3702D2904200F25881BC
:1019F0003946121AA4B2B2FBFEF00EFB102200FB15
:101A00000CFC44EA0244A4450BD92C1900F1FF3226
:101A10002CBF01270027A44502D9002F00F04381E5
:101A2000104640EA0140A4EB0C0400211EB1DC404A
:101A30000023C6E90043BDE8F08F8B4206D90EB102
:101A4000C6E9000100210846BDE8F08FB3FA83F132
:101A5000002951D16345C0F01681824240F21381C2
:101A60000846002EE7D0C6E90047E4E7002A00F068
:101A7000AF80B2FA82F3002B40F0C2808A1A4FEA9C
:101A8000154EAFB20121200CB2FBFEFC0EFB1C2256
:101A900040EA024207FB0CF090420ED9AA180CF162
:101AA000FF382CBF4FF001094FF00009904203D9D5
:101AB000B9F1000F00F0F080C446121AA4B2B2FBD4
:101AC000FEF00EFB102200FB07F744EA0244A74297
:101AD0000ED92C1900F1FF322CBF4FF0010E4FF040
:101AE000000EA74203D9BEF1000F00F0D2801046CD
:101AF000E41B40EA0C4099E7C1F120058B400CFA49
:101B000001F400FA01F922FA05F72CFA05FC8A40E3
:101B10001F4320FA05F3380C23431FFA87FE1C0CE1
:101B2000BCFBF0F800FB18CC44EA0C4408FB0EFCAC
:101B3000A4450ED93C1908F1FF3A2CBF4FF0010B18
:101B40004FF0000BA44503D9BBF1000F00F0B880A3
:101B5000D046A4EB0C041FFA83FCB4FBF0F300FBAB
:101B6000134403FB0EFE4CEA0444A6450ED93C196F
:101B700003F1FF302CBF4FF0010C4FF0000CA645D5
:101B800003D9BCF1000F00F09F80034643EA0840F0
:101B9000A4EB0E04A0FB02EC64457346E04602D3BE
:101BA00007D1F14505D2BEEB02036CEB070C0138FF
:101BB000E0465EB1B9EB030264EB080404FA05F5F4
:101BC00022FA01F3CC401D43C6E90054002132E75C
:101BD00042082F464B08AC4642EAC172AE46C407E3
:101BE000110C92B241EA034142EA0142B1FBF5F124
:101BF000B3FBF5F01F23A2EB0C0241EA004142E7E0
:101C00009D40C3F1200299409C402CFA02FC4FEA0F
:101C1000154E20FA02F2AFB2BCFBFEF80A430EFBEF
:101C200018CC110C41EA0C4108FB07FC8C4550D93B
:101C3000691808F1FF302CBF4FF001094FF000097F
:101C40008C4502D9B9F1000F30D0A1EB0C01B1FBEA
:101C5000FEF808FB07FC0EFB181192B242EA0142A3
:101C6000624534D2AA1808F1FF312CBF4FF00109A8
:101C70004FF000096245BED2B9F1000FBBD1A8F107
:101C800002012A44B7E7841A6CEB030201201746CD
:101C9000E7E62C4402382BE7ACF1020C2A440CE7AF
:101CA00002392A44A5E62C440238BAE6A5EB0C0C0E
:101CB000A8F102006144B1FBFEF808FB07FCCAE78B
:101CC000A8F102083C4444E7023B3C445EE741463D
:101CD00091E7A1EB0C014046B1FBFEF808FB07FCC5
:101CE000B9E700BF704700BF044B82B0C3F84C0A8D
:101CF000D3F84C320193019B02B07047008002562A
:101D0000044B82B0C3F85C0AD3F85C320193019BA8
:101D100002B0704700800256074B084A1B6808490A
:101D2000B3FBF2F3434310B54C684A68121B9A4266
:101D300000D310BD00BFF8E70800003440420F0098
:101D4000001000E001224021014806F0EFB800BF7A
:101D50000040025600224021014806F0E7B800BFCB
:101D60000040025638B505460824EB0710D5FFF7AA
:101D7000F1FF0620FFF7D0FFFFF7E4FF4020013C12
:101D8000FFF7CAFF14F0FF044FEA5505EDD138BD47
:101D9000FFF7E0FF3C20FFF7BFFFFFF7D3FF0A206C
:101DA000EDE7000010B5FFF7CDFF0520FFF7B4FF0A
:101DB000FFF7D0FF4FF4F070FFF7AEFFFFF7C2FF61
:101DC0004620FFF7A9FF4021054806F0A9F8044680
:101DD0004FF4CD70FFF7A0FFB4FA84F0400910BDB6
:101DE0000040025608B5FFF7DDFF38B1CC20FFF701
:101DF000B9FF4420FFF7B6FF002008BD0120FCE733
:101E00002DE9FF470746FFF7CDFF00285FD0CC2024
:101E1000FFF7A8FF0DF10408BE20FFF7A3FFC2469D
:101E200009250024A146FFF795FF0320FFF774FF63
:101E3000FFF788FF0A20FFF76FFF4021274806F0D1
:101E40006FF806463520FFF767FF012E04BFA64056
:101E500049EA060904F1010408BF5FFA89F9082C70
:101E6000E1D1013D15F0FF050AF8019BD9D12046CB
:101E70004FF0080E4EF001E018F8013B5D4045F3CD
:101E8000000323F0730383EA5503DDB20FF009C8A2
:101E9000441E14F0FF00EBD19DF80C30AB4218D17A
:101EA0006422BDF8043013FB02F303F10F02002B90
:101EB000B8BF134641F27C52191102EB231344F2CE
:101EC0005062934207D8398004B0BDE8F087012002
:101ED000FAE70220F8E70320F6E700BF00400256C9
:101EE00003780822DB43DBB259B200294FEA4303EF
:101EF000DBB20EDB013AF7D1427883EA0200082315
:101F000042B2002A4FEA4000C0B205DB013BF7D1E4
:101F1000704783F03103EDE780F03100F6E7000011
:101F2000094B00B5B3F81AE09B8B002203FB0EFEB1
:101F30000EF1010E4EF001E0044BBEF1010E00D196
:101F400000BD23F8022BF8E7AC0C00340000009031
:101F50002DE9F04F97B091469DF884B00593BDF9F7
:101F600080509DF89080FFF7DBFF4FF478431027F7
:101F70008A461E2106460293774B08464FF4D272DA
:101F8000019300973B4603F0A3F832461F2606ACA8
:101F90007249204622F032FB3B464FF4D272372181
:101FA0001E20CDE90146009703F092F852466C4995
:101FB000204622F023FB3B464FF4D2724B211E20D9
:101FC000CDE90146009703F083F84A46654920466B
:101FD00022F014FB3B464FF4D2725F211E20CDE964
:101FE0000146009703F074F8059A5F49204622F0F5
:101FF00005FB3B464FF4D27273211E20CDE901460A
:10200000009703F065F8BBF1000F40F0898020468F
:10201000564922F0A2FE1F23CDE9014310234FF4BD
:10202000D27287211E20009303F052F8B8F1000FFE
:1020300000F087802046BDF888204D4922F0DEFA66
:102040001F23CDE9014310234FF4D2729B211E20A0
:10205000009303F03DF8B8F1000F77D02046BDF8AB
:102060008C20444922F0CAFA1F23CDE901431023F2
:102070004FF4D2720093AF211E2003F029F89DF88F
:1020800094302046012B0CBF3B4A3C4A3C4922F08D
:10209000B5FA4FF4FC63CDE9014310234FF4D2723B
:1020A0000093C3211E2003F013F89DF898302046BA
:1020B000012B0CBF304A314A324922F09FFA4FF4CB
:1020C000FC63CDE9014310234FF4FC654FF4D27259
:1020D0000093D7211E2002F0FBFF9DF89C30204684
:1020E000012B0CBF284A294A294922F087FACDE959
:1020F000014510244FF4D2722346EB211E20009498
:1021000002F0E6FF234B4FF4D272CDE90043FF21EA
:1021100023461E20029502F0DBFF17B0BDE8F08FCA
:10212000642195FBF1F31AB201FB13531BB2002B90
:10213000B8BF5B4220461849B8BF1BB222F05EFA16
:1021400069E72046154922F008FE79E72046144940
:1021500022F003FE88E700BF83A012708FA01270E8
:102160009FA01270AFA01270BFA01270CEA012700C
:10217000ECA0127008A1127070A0127073A01270FF
:1021800024A112702FA1127077A012707EA012707D
:102190003AA1127045A11270DAA01270FCA0127060
:1021A00018A11270232808D80B78012B0BD001221C
:1021B0000A700548042105F0B9BE2C2803D90B7814
:1021C0000BB10022F4E770470040025610B4019CA6
:1021D000C1B99BB3012040F6B7339A421FDCB2F578
:1021E0002F6FCCBF00220122D9B111462378012BD9
:1021F00018D0012300222370402112485DF8044BBF
:1022000005F094BEB0F57A7F14D2B0F5487F8CBF4C
:102210000020012033B10021DDE70020DBE70021B1
:10222000E4E7114650B149B123783BB100230122C4
:102230002370E1E7002BF0D11846D7E75DF8044B97
:10224000704700BF001C02562DE9F0474FF40263AF
:10225000642486B080460F46ADF81030B0210223CA
:102260002148009404AA06F05FF800283AD10F2014
:1022700003F0F2F900940623B0211B4804AA06F0EB
:10228000E9F8044640BB9DF810A09DF8116003A832
:102290008DF80CA08DF80D60FFF722FE9DF812302E
:1022A00083421BD19DF813909DF8145003A88DF81C
:1022B0000C908DF80D50FFF713FE9DF815308342FA
:1022C0000ED146EA0A2645EA0925A8F800603D80B5
:1022D000204606B0BDE8F0870224F9E70324F7E7BB
:1022E0000424F5E70124F3E7BC0A003400B5E5B0A7
:1022F0004FF4C8720021684622F0A1FA042280231C
:102300006846CDE9002307F00DF908B172B6FEE783
:1023100065B000BD00234DF6F0022DE9F04FADF59C
:102320004B7D8DF84E308DF84F30ADF85030ADF814
:102330005230ADF85430ADF85830ADF85A30C64B85
:10234000ADF856205A6912F4003211D1BFF34F8F05
:10235000BFF36F8FC3F85022BFF34F8FBFF36F8F60
:102360005A6942F400325A61BFF34F8FBFF36F8F47
:10237000B94A536913F4803328D1C2F88430BFF3CB
:102380004F8F43F6E074D2F88030C3F3C900C3F333
:102390004E335B0100F1010E01464EF001E003EA0D
:1023A000040646EA8175C2F8605201390FF007C889
:1023B000203B13F1200FEDD1BFF34F8F536943F44E
:1023C00080335361BFF34F8FBFF36F8F34AC03F093
:1023D0001FF914220021204622F031FA0420FFF7D1
:1023E0008FFC1020FFF78CFC0820FFF789FC0220EF
:1023F000FFF786FC8020FFF783FC4FF48030FFF767
:102400007FFC4FF40040FFF77BFC4FF48040FFF768
:1024100077FC4020FFF774FC2020FFF771FC0120BF
:102420000025012602274FF040084FF0040AFFF76D
:1024300067FC02464021894805F078FD002204210E
:10244000874805F073FD01224021854805F06EFDA7
:1024500001224FF48061834805F068FD00220821C5
:10246000814805F063FD00225021804805F05EFDA3
:10247000002208217E4805F059FD01224FF48061B9
:102480007A4805F053FD21467748C4E90075A660F7
:1024900005F0B2FB2146C4E900867048C4E9025544
:1024A00005F0AAFB21466E48C4E900A6C4E902551E
:1024B00005F0A2FB11232146C4E901356848C4F8A0
:1024C0000080E56005F098FBC4E900854FF4806862
:1024D0004FF0080921466748A66005F08DFB2146AC
:1024E0006048C4E90086C4E9027505F085FB214611
:1024F0005D48C4E90096C4E9026505F07DFB4FF430
:1025000000532146C4E900355A48A76005F074FB22
:102510005023C4E9003603232146E3605348A660F4
:1025200005F06AFB21465248C4E90096C4E90265F9
:1025300005F062FB21464D48C4E90086C4E90275F6
:1025400005F05AFB4FF400634848C4E900352146C2
:10255000A66005F051FB484A484B4FF0FF0B136053
:102560004FF480331046C2E90137D5605564976453
:10257000D564C2F850B005F00DFA08B172B6FEE7A6
:1025800031463D4805F0D8FA074608B172B6FEE775
:1025900034220146204622F052F9394D394B4FF48E
:1025A000027CC5E900372823C5E907394FF48C734D
:1025B00040F20D2EC5E909C34FF490732846C5E9D2
:1025C0000277C5E90477C5E90BE3AF61AF8685F80B
:1025D000367006F0DBFC024608B172B6FEE74FF437
:1025E000F0714FF48873C4E90110C4E905B02060AC
:1025F0000520C4E90A13C4E9080221462846C4E9B3
:10260000033AC4F81C80228684F8322006F04AFD82
:1026100008B172B6FEE71C4D1C4BDFF87480C5E9AB
:102620000206C5E90400C5E9060028622846C5E996
:10263000003805F023FE014608B172B6FEE72846D1
:1026400006F0E0F9014608B172B6FEE7284606F04A
:10265000FFF9F8B172B6FEE700ED00E0001C02568B
:102660000040025600100256000C02560018025696
:102670000000025600080256100B003400100258E9
:102680006C09003400100058680A003400580050EB
:10269000BC7D70104FF4E1338C4D8D4EC5E90200C6
:1026A000C5E900630C23C5E90700C5E90530C5E9A4
:1026B0000900286128460CF042FC014608B172B6B8
:1026C000FEE728460CF05EFD014608B172B6FEE753
:1026D00028460CF077FD08B172B6FEE77B480CF097
:1026E00036FD034608B172B6FEE74FF480464FF45C
:1026F000003504277748784A8360C0E90023C0E9A1
:10270000036547610AF0B2FF034608B172B6FEE7FF
:102710007248734AC0E90236C0E90023C0E9045791
:102720000AF0A4FF08B172B6FEE701266D4D6E4BAC
:10273000C5E90360C5E90500C5E90700A8602846AA
:10274000C5E9003805F09AFD014608B172B6FEE70A
:10275000284606F057F9014608B172B6FEE728464A
:1027600006F076F908B172B6FEE7604D604BC5E938
:102770000206C5E90400C5E9060028622846C5E945
:10278000003805F07BFD014608B172B6FEE7284629
:1027900006F038F9014608B172B6FEE7284606F0A1
:1027A00057F9054608B172B6FEE70DF180080146FB
:1027B000C8E90000C8F808002022204622F03FF8AF
:1027C0004C484D4BC0E90255C0E90035C0E90955F8
:1027D000C0E90C550761858286610577856380F8BD
:1027E0003C5002F053FF08B172B6FEE700234146A9
:1027F0004048C8F8003003F033FB08B172B6FEE77A
:102800000F2506234FF0040AC4E9005340F2FF33BA
:10281000A06060612146C4E9033A364803F05AF8E3
:10282000054608B172B6FEE71026FFF75FFD0DF111
:10283000740932462946404622F001F81C222946F6
:102840002046C9E90055C9F8085021F0F8FF40F2C8
:102850008F132A4F2A48BD60C7E9000344F61F635F
:10286000C7E9033580233846BB610BF079F908B11D
:1028700072B6FEE74FF4805341463846C8F8003040
:102880000BF0A8FA08B172B6FEE738460BF098F9DB
:1028900008B172B6FEE7C9F80000C9F80800494659
:1028A00038460BF043FC08B172B6FEE7602140F2F7
:1028B000DC53A060C4E9001320610C222146384695
:1028C0000BF002FAF0B172B6FEE700BF94070034D5
:1028D00000100052F00800340070025874080034F0
:1028E00000680258140A0034001C0056BC0A003468
:1028F00000540050780B00340020025028080034A7
:10290000000800500C90384601F0ACF94FF4007309
:1029100003254FF0020BDC4AC2F8583AD2F85802AD
:10292000C4E900B51A901A99092021460AF09EF8C8
:10293000214608200AF09AF821460A200AF096F863
:10294000214658460AF092F8214628460AF08EF8A9
:10295000214601200AF08AF82946CC480AF09CF862
:102960002946CB480AF098F801214FF000500AF0B0
:1029700093F82946C7480AF08FF82946C6480AF056
:102980008BF82946C5480AF087F82946C4480AF05A
:1029900083F82946C3480AF07FF82946C2480AF05E
:1029A0007BF82946C1480AF077F82946C0480AF062
:1029B00073F82946BF480AF06FF82946BE480AF066
:1029C0006BF82946BD480AF067F82946BC480AF06A
:1029D00063F82946BB480AF05FF88020FFF784F9C6
:1029E0004FF48070FFF780F90120FFF77DF958461A
:1029F000FFF77AF95046FFF777F90820FFF774F9E7
:102A00004FF48053A04A4FF47844C2F8543AD2F8B5
:102A10005402199019994FF00041C2F8601AD2F887
:102A20006002189018994FF08041C2F8601AD2F8ED
:102A300060124FF480601791179A2021FFF754F924
:102A4000012006F09BFB40F2013201219E4805F077
:102A50007BFA40F2013259469B4805F075FA51461F
:102A600040F20132984805F06FFA40F20132082135
:102A7000954805F069FA40F201322021924805F0AC
:102A800063FA40F201324FF480718F4805F05CFA2E
:102A900040F201324FF400718B4805F055FA40F2D4
:102AA00001324FF48061884805F04EFA40F201325D
:102AB0004FF40061844805F047FA40F201324FF4C8
:102AC0008061824805F040FA40F201324FF4006123
:102AD0007E4805F039FA40F201324FF480517B48CC
:102AE00005F032FA40F201324FF40041774805F028
:102AF0002BFA40F201320121754805F025FA40F227
:102B000001325946724805F01FFA40F2013208219D
:102B10006F4805F019FA314640F201326C4805F071
:102B200013FA40F201322021694805F00DFA40F213
:102B300001324021664805F007FA40F201324FF4B5
:102B40008071634805F000FA40F201324FF40071E1
:102B50005F4805F0F9F940F201324FF480615C48BA
:102B600005F0F2F940F201324FF40061584805F0E7
:102B7000EBF940F201324FF48051554805F0E4F989
:102B800040F201324FF40051514805F0DDF940F2B6
:102B9000013259464F4805F0D7F9514640F201320B
:102BA0004C4805F0D1F940F201320821494805F0BE
:102BB000CBF9314640F20132464805F0C5F940F202
:102BC00001324FF48041434805F0BEF9314640F2EE
:102BD0000132414805F0B8F940F2013220213E4867
:102BE00005F0B2F940F2013240213B4805F0ACF962
:102BF00040F201324FF48061374805F0A5F940F208
:102C000001324FF40051344805F09EF940F2013290
:102C10004FF48041304805F097F940F2013201212C
:102C20002E4805F091F940F2013240212B4805F081
:102C30008BF940F201324FF48071284805F084F995
:102C400040F201324FF40071244805F07DF940F262
:102C500001320121224805F077F9314640F2013274
:102C60001F4805F071F940F2013240211C4805F07F
:102C70006BF940F201324FF40071194805F064F924
:102C800040F201322EE000BF008002561500001015
:102C9000160000101D000020050000300700003065
:102CA0000A00003012000040190000401E000050D1
:102CB000110000501200005013000050140000508A
:102CC0000C0000400D0000400000025600040256B7
:102CD00000080256000C025600100256001402565C
:102CE000001802564FF48061C54805F02DF940F2F6
:102CF00001324FF40061C24805F026F940F201327A
:102D00004FF40051BE4805F01FF9514640F2013220
:102D1000BC4805F019F940F201320821B94805F024
:102D200013F9314640F20132B64805F00DF940F290
:102D300001324021B34805F007F940F201324FF467
:102D40000071B04805F000F940F201320121AE48AF
:102D500005F0FAF8514640F20132AB4805F0F4F8BC
:102D6000314640F20132A84805F0EEF840F2013257
:102D70002021A54805F0E8F8514640F20132A34869
:102D800005F0E2F840F201324021A04805F0DCF8FD
:102D900040F2013201219E4805F0D6F840F201329E
:102DA00059469B4805F0D0F8514640F20132984808
:102DB00005F0CAF840F201320821954805F0C4F840
:102DC000314640F20132924805F0BEF840F201323D
:102DD00020218F4805F0B8F840F2013240218C489C
:102DE00005F0B2F840F201328021894805F0ACF8D4
:102DF00001F04CFE01F0BEF901F0D8FD4FF4E130D6
:102E000002F034FA01F054FF012001F06FFE0C9B38
:102E1000DFF83CA218461AF001FA01201AF0FEF978
:102E20001AF0ECF87B4B01227B49186819F0A8F9DD
:102E30001BF040F9794BC822CDE9006332213346BB
:102E40001E20029402F044F9754BC822CDE90063BC
:102E5000462133461E20029402F03AF9714BC822F3
:102E6000CDE900635A2133461E20029402F030F966
:102E70006D4E01F055FB4FF478450295002872D154
:102E80006A4BC822019310236E211E20009302F08A
:102E90001FF9674EDFF8BCA101F0F4F84FF4784554
:102EA0000D90029500287ED11024624BF0228221E1
:102EB0001E2001930094234602F00AF964230322A2
:102EC000B0215D4805F016FD002840F08C804FF4DD
:102ED0004873ADF8D0306423B021009356480223E4
:102EE00034AA05F021FA00287DD1142002F0B4FBA9
:102EF000524BF022CDE90043962123461E20029535
:102F000002F0E6F801230D93012240213D4805F02F
:102F10000DF804213D48002205F008F8484AD2F88F
:102F2000FC3043F08073C2F8FC300022454B5A60FD
:102F30001A6842F001021A60FEF704FF0A2002F04C
:102F40008BFBFEF72FFF119028B1FEF74BFF80F0AF
:102F50000100C3B211930C213B480BF0E5F80028A7
:102F60007AD072B6FEE71024C82223466E211E20B6
:102F70000196009402F0ACF84FF4FA7002F06CFB8A
:102F80002346C8226E211E20CDE901A5009402F03F
:102F90009FF84FF4FA7002F05FFB4FF4806118481D
:102FA00004F0C9FF65E71024F022234682211E2089
:102FB0000196009402F08CF84FF4FA7002F04CFB8A
:102FC0002346F02282211E20CDE901A5009402F0C3
:102FD0007FF84FF4FA7002F03FFB4FF4806108482D
:102FE00004F0A9FF58E74FF478430293174BF022FF
:102FF0000193102396211E20009302F069F883E7C5
:1030000000180256001C02560038025600400256B4
:10301000003C0256F41400345AA112705DA11270E3
:1030200053A1127063A1127071A112708DA1127060
:103030009BA11270B9A11270BC0A0034C8A1127011
:1030400000ED00E0001000E028080034D8A1127064
:103050007FA11270AAA1127010244FF478454FF48A
:103060002F723B68394E1A64AA2123464FF4967298
:103070001E2002950196009402F02AF80295344D24
:10308000BE211E2023464FF49672CDE9004502F082
:103090001FF840462F4919F004FE40B32D4819F09F
:1030A00061FE20B32C4E10244FF478452346C822ED
:1030B00082211E20CDE90165009402F009F84FF449
:1030C000FA7002F0C9FA254BC8228221CDE90043EB
:1030D0001E202346029501F0FBFF4FF4FA7002F028
:1030E000BBFA4FF480611E4804F025FFDBE7404641
:1030F00019F02FFE40F2FF1101201AF0DBF80C90BE
:10310000A0BB184E10244FF478452346C8228221D4
:103110001E20CDE90165009401F0DAFF4FF4FA704A
:1031200002F09AFA104BC8228221CDE900431E20FA
:103130002346029501F0CCFF4FF4FA7002F08CFAAE
:103140004FF48061064804F0F6FEDBE7E8A1127058
:10315000F6A1127008A2127013A212702BA21270A4
:103160000018025643A2127055A2127010244FF498
:1031700078472346CDE9016700944FF49672962173
:103180001E2001F0A5FF2346CDE901574FF49672AA
:10319000AA2100941E2001F09BFF4FF4FA6002F078
:1031A0005BFAA84801F0B8FB00230127DFF8D482BE
:1031B0001B931C9398F800301BAC1CAD34AEC9F8BF
:1031C0000070376033B911F0A4F9002840F0AC80EA
:1031D00088F800709C4F3B783BB99C4817F040FA48
:1031E000002840F0A18001233B704A4621469748C1
:1031F00017F072FA002840F09780D9F80030002BC1
:1032000000F092802368002B00F08E803246294621
:103210008E4817F064FA002840F086803368002B4F
:1032200000F082802B68002B7ED023684FF496221A
:103230001846802121F003FB00F596210CF096FB47
:10324000834821F0E9F80121804817F021FA04466B
:103250000146804821F078F8002C65D19FED7E6A08
:103260004FF0FF3140F634002B6803F50342403243
:10327000F2EC017AB4EEE76AF1EE10FA44BF2146AF
:10328000B0EE676A013804F10104F1D14A1C00F084
:10329000C68003EB810303F50352D3ED005A92ED90
:1032A000045A03F5834203F5C443D3ED1C6ADFEDF2
:1032B0006B7A86EEA77ADFED6A7AB4EEE76AF1EE12
:1032C00010FAD2ED084A03F1700300F1B480DFED8B
:1032D000657AB4EEE77AF1EE10FA00F1AE80DFED38
:1032E000627AF4EEC77AF1EE10FACCBF0223032320
:1032F000B7EEC77A8DED087BB7EEE67A8DED067BEB
:10330000B7EEE47A8DED047BB7EEC57A8DED027BE6
:10331000B7EEE57A8DED007BB7EEC67A0A93534897
:1033200053EC172B21F010F8002427462646A04620
:10333000CDE90F440E9400252B464D4A4D490C987B
:1033400021F05CF901220C9934A818F041FF0428FF
:1033500006D010B934A819F016FB01356B1CEBD15F
:103360000025DFF82491002001F022FB032840F023
:103370002D81002D40F0208101F0E2FA0DF1520282
:1033800015A914A800F0B4FE0A210F2000F06AFE6F
:103390006423C0F56160584340F63403364A90FB1D
:1033A000F3F390424BDB354A9042C8BF6423DDB251
:1033B000119B0DF1560B3BB15846FEF721FDB0FABB
:1033C00080F46409FEF70EFD0D9B0DF1580A3BB128
:1033D00050460DF15A01FEF737FFB0FA80F6760934
:1033E000BAF800A0BBF900B00DF14E035A463146C1
:1033F000504600932346FEF7E9FE28460DF14F01A3
:10340000FEF7D0FEBDF85220B2F5966F3ED327B935
:1034100040F69801D9F80030196401273DE09FED8E
:10342000187A0023F0EE476AF0EE474AB0EE475AAA
:10343000F0EE475A5CE700235AE7012358E72B4692
:10344000B5E700BF00000090500700345407003477
:1034500067A2127077A2127000C079C40000A04366
:103460009A99993E3333B33E6666263F8EA2127018
:1034700008A21270D8A21270CDF7FFFF833C0300A0
:10348000000000005107003428080034B2F5167F10
:1034900003D8002F40F08A8000279DF84F30CDE9F7
:1034A00000B406939DF84E30BDF85410CDE9046386
:1034B000BDF85A30BDF85000CDE902A307972B465E
:1034C000FEF746FD0125FA2002F0C6F8002D00F0B7
:1034D000BC8008F101085FFA88F8B8F1310F40F2BA
:1034E000DF800DF1520215A914A800F001FE0A2197
:1034F0000F2000F0B7FD642340F63408C0F561608A
:103500005843A3F69703984290FBF8F8C0F2A880BE
:103510006F4B9842C8BF4FF06408119B5FFA88F860
:103520000DF1560B7BB1109B0133DBB2012B1093D5
:1035300009D95846FEF764FCB0FA80F4FEF752FC55
:103540000023640910930D9B0DF1580A7BB10F9B6A
:103550000133DBB2012B0F9309D950460DF15A010B
:10356000FEF772FE0023B0FA80F60F937609BAF8E0
:1035700000A0BBF900B00DF14E035A46314650464B
:1035800000932346FEF722FE40460DF14F01FEF761
:1035900009FEBDF85220B2F5966F64D327B940F604
:1035A0009801D9F800301964012761E04FF42F71B8
:1035B000D9F8003019646FE73220FEF7B1FC02F051
:1035C0004BF8444801F0A8F900257CE7002D80D194
:1035D00002283AD1DFF80C9101F0B2F90195B9F85F
:1035E0001C302A4600932946B9F81A300C9819F075
:1035F00083FF0195B9F81C302A4600932946B9F893
:103600001A300C981AF0E2FD4FF4784302930C9BA9
:10361000C822019310236E2100931E2001F058FD53
:10362000012208212C4804F081FC642002F014F8E7
:103630002A460821284804F079FC4FF47A7002F0F9
:103640000BF8244801F068F975E601F081F908B932
:1036500000253EE74FF48061204804F06CFCF7E75A
:103660004FF0000859E7B2F5167F01D84FBB00278D
:10367000A5B19DF84F30CDE900B406939DF84E30CA
:10368000BDF85410CDE90463BDF85A30BDF85000C0
:10369000CDE902A307974346FEF75AFC4FF0000816
:1036A0000E9B0133DBB2142B0E9306D14FF48061D5
:1036B0000B4804F040FC00230E930A2001F0CCFFDD
:1036C00051E64FF42F71D9F800301964CFE700BFED
:1036D000833C030000000090000C025600100256CC
:1036E00000180256AC0C003401F03CB901F042B9AC
:1036F00072B6FEE7C0B26DED81CF11B140B10128C5
:1037000009D09FEC100A9FE80F90FDEC81CF744721
:10371000024B1960F5E7024BFBE700BFDC0B0034FE
:10372000D80B0034044B82B0C3F85C0AD3F85C3287
:103730000193019B02B0704700800256044B82B097
:10374000C3F8600AD3F860320193019B02B070475E
:103750000080025608B505F079FD05F05FFD0121F6
:10376000084605F02BFD05F061FD0021032005F062
:1037700025FD05F063FDBDE808400021042005F0AB
:103780001DBD000010B50446EAB01422002101A8B6
:1037900021F055F84FF4C872002106A821F04FF827
:1037A0002268144B9A4222D1002301221021CDE934
:1037B0000623012306A8CDE9351305F0B3FE08B1B1
:1037C000FFF796FF20200C4B01A9C3F8500AD3F84D
:1037D00050226B4600921B684022FFF7A3FF032391
:1037E000CDE9012300230548039304F005FA6AB0EC
:1037F00010BD00BF00200250008002560014025687
:103800000268034B9A4202D10220FFF797BF70472C
:103810000010025870B50446ECB01422002103A831
:1038200021F00DF84FF4C872002108A821F007F824
:103830002368474A934236D100234FF48052CDE9A2
:103840000823444B08A8429305F06CFE08B1FFF72B
:103850004FFF0420FFF766FF8020FFF763FF12266B
:103860000223002404253C4803A9CDE90336CDE911
:103870000544079504F0C0F94FF40073374803A9D5
:10388000CDE90336CDE90544079504F0B5F94FF4C9
:103890000012334BC3F8642AD3F864226B460092BB
:1038A0001B686CB070BD2F4A934227D100234FF4A0
:1038B0000052CDE908232C4B08A8439305F032FEB3
:1038C00008B1FFF715FF0820FFF72CFF44F21001A5
:1038D0001223CDE903130023CDE905330423234844
:1038E00003A9079304F088F94FF480021C4BC3F836
:1038F000642AD3F864220192019BD2E71C4A9342C6
:10390000CFD100234FF40042CDE90823194B08A87A
:10391000459305F007FE08B1FFF7EAFE1020FFF718
:1039200001FF4FF4C0421223CDE903230023CDE968
:1039300005330423104803A9079304F05DF980229E
:10394000074BC3F8742AD3F874220292029BA8E7AB
:10395000005400500C00010700080256001C0256DB
:1039600000800256005800500C040107000C02565B
:10397000001C00560C0C010700100256F0B504465E
:10398000EBB01422002101A820F059FF4FF4C872B7
:10399000002106A820F053FF2268384B9A426BD1D1
:1039A00000234FF08072CDE906234FF000734C9353
:1039B000852306A8279305F0B5FD08B1FFF798FE0B
:1039C00002242F4B2046C3F87C4AD3F87C226B4656
:1039D00000921B68FFF7A6FE8020FFF7A3FE2020C1
:1039E000FFF7A0FE0120FFF79DFE4020FFF79AFEA3
:1039F000002603250E2749F61043224801A9CDE9E8
:103A00000134CDE90365059704F0F6F810231E484C
:103A100001A9CDE90134CDE90365059704F0ECF87F
:103A20004FF44073194801A9CDE90134CDE903658C
:103A3000059704F0E1F848F62773154801A9CDE988
:103A40000134CDE90365059704F0D6F80123CDE9EB
:103A500001340A230F4801A90593CDE9036504F059
:103A6000CBF84FF408530B4801A9CDE90134CDE957
:103A70000365059704F0C0F86BB0F0BD0010005866
:103A80000080025600040256001C02560014025622
:103A9000000002560018025608B50268104B9A4200
:103AA0001DD102220F4B49F61041C3F87C220E486B
:103AB00004F086F910210D4804F082F94FF44071AA
:103AC0000B4804F07DF948F627710A4804F078F9AC
:103AD000BDE8084042F20121074804F071B908BD71
:103AE000001000580090025600040256001C0256B6
:103AF000001402560000025600180256F0B50446A3
:103B0000EBB01422002101A820F099FE4FF4C872F6
:103B1000002106A820F093FE2368404A93423ED13C
:103B200000234FF08042CDE906233D4B06A8519378
:103B300005F0F8FC08B1FFF7DBFD4FF48070FFF7EC
:103B4000FDFD0420FFF7EEFD8020FFF7EBFD0226D0
:103B50004FF4706300250A240127324801A9CDE9FA
:103B60000136CDE90357059404F046F84FF480532D
:103B7000CDE9013603232B4801A9CDE9043403958F
:103B800004F03AF80423CDE90357CDE9013626487D
:103B900005940DEB030104F02FF86BB0F0BD234A40
:103BA0009342FAD100234FF00042CDE90623204B87
:103BB00006A8529305F0B6FC08B1FFF799FD8020E6
:103BC000FFF7BCFD0420FFF7ADFD0820FFF7AAFDBD
:103BD0001020FFF7A7FD0226392300250B2401271B
:103BE000104801A9CDE90136CDE90357059404F049
:103BF00003F80423CDE9013603230E4801A9CDE9DA
:103C00000434039503F0F8FF1023CDE90357CDE901
:103C100001360948059401A9BDE700BF00700258AC
:103C20001C00000300080256001C025600680258DF
:103C30001C040003000C0256001002560268074BD9
:103C400082B09A4207D10422054BC3F8642AD3F804
:103C500064320193019B02B0704700BF000800501E
:103C60000080025610B5044686B01422002101A837
:103C700020F0E5FD22680A4B9A420ED12020FFF782
:103C800051FD01220223CDE901230022054801A9AB
:103C9000CDE90322059303F0AFFF06B010BD00BFCE
:103CA000000800500014025610B50446EAB0142271
:103CB000002101A820F0C3FD4FF4C872002106A81E
:103CC00020F0BDFD2268194B9A422CD14FF480732D
:103CD0000022CDE90623164B06A85A9305F022FCD4
:103CE00008B1FFF705FD1020124B0024C3F86C0A41
:103CF000D3F86C226B4600921B686022FFF712FD1E
:103D00000223CDE9012307230B4801A90593CDE93F
:103D1000034403F071FF9F202246214602F020F960
:103D20009F2002F04DF96AB010BD00BF0010005294
:103D300030000107008002560010025610B50446FC
:103D4000E6B04FF4C872002102A820F078FD226886
:103D50001E4B9A4238D100231822CDE902234FF49A
:103D60000013042434933C2302A82594279305F0E0
:103D7000D9FB08B1FFF7BCFC154BC3F87C4AD3F85C
:103D80007C120191019A40226946C3F87C2AD3F83B
:103D90007C02009009680F49C3F83C4AC1F83C42D4
:103DA000C3F83C2AC1F83C2200223020114602F020
:103DB000D7F800222F20114602F0D2F8302002F06E
:103DC000FFF82F2002F0FCF866B010BD002000586C
:103DD0000080025600900256FEE7000008B5024837
:103DE00020F01AFBFEE700BFE6A2127008B50248F9
:103DF00020F012FBFEE700BFF9A2127008B50248DE
:103E000020F00AFBFEE700BF0CA3127008B50248C1
:103E100020F002FBFEE700BF1EA3127008B50248A7
:103E200020F0FAFAFEE700BF32A312707047704725
:103E3000704701F0FFBB000001480AF02BBA00BF39
:103E400094070034014802F08FBD00BFA00C00347D
:103E5000014802F053BC00BFA00C003401207047A1
:103E600008B520F04DFF162303604FF0FF3008BD6A
:103E700008B520F045FF16230360FEE770B50D4638
:103E800014460E46731B9C4201DC204670BDAFF306
:103E9000008006F8010BF5E770B50D4614460E4696
:103EA000731B9C4201DC204670BD16F8010B01F02B
:103EB0002FFAF5E74FF0FF3070474FF40053002022
:103EC0004B60704701207047002070470A4A034644
:103ED000106810B508B9094810600949094C034435
:103EE000091B8B4206D920F00BFF0C2303604FF017
:103EF000FF3010BD1360FCE7E00B0034401E0E34B1
:103F000000001034000800000020704708B518B108
:103F1000012807D0012008BD01F00CF9003818BFB6
:103F20000120F8E701F054F9F8E710B50446084617
:103F300011461A461CB1012C07D0012010BD01F01A
:103F40000FF9003818BF0120F8E701F057F9F8E73A
:103F500010B50446084611461A461CB1012C07D07C
:103F6000012010BD01F018F9003818BF0120F8E752
:103F700001F060F9F8E7000018B1012813D0012022
:103F80007047032924D8DFE801F0050B02074FF43E
:103F900000731360002070470E4BDB691380F9E754
:103FA0000C4B9B69F5E7032912D801A353F821F0C4
:103FB000953F1070C53F10708F3F1070C13F10705B
:103FC000054BEAE7044B9B69A3F54053193BE0E737
:103FD00004207047E40C0034200D00340F4880F3B7
:103FE0000A880F48854601F0A1F90E480E490F4A8C
:103FF000002302E0D458C4500433C4188C42F9D3CF
:104000000B4A0C4C002301E013600432A242FBD3A4
:1040100020F07CFEFEF77EF9FEE7000000F80F348A
:104020000000103400000034F4030034FC3017703A
:1040300000040034401E0E34FEE7000010B50848AE
:1040400001F046FE4FF47A71054801F0CDFB0448BB
:1040500001F03CFC0446024801F0D7FE204610BDAA
:10406000780B0034F8B5002407460E462546B442C6
:1040700002D1B5FBF4F0F8BD3846FFF7DFFF01349D
:104080000544F4E770B5042301244FF47A7686B032
:1040900005AD00223C218DF81430CDE901462346C0
:1040A0000095124804F06EFA0A2001F0D5FA0323B5
:1040B00000228DF814303C212346CDE901460095BD
:1040C0000A4804F05FFA002223463C21CDE901466C
:1040D000009506488DF8142004F02EFB9DF814007E
:1040E000033818BF012006B070BD00BF140A0034A9
:1040F0002DE9F04707460D4616460A244FF47A7A12
:104100004FF0010986B00DF1100822460134CDF8B8
:10411000008001233C21CDE9019A1548A4B204F0A6
:104120000BFB102C08F10108EFD19DF910209DF830
:104130001030002AB1BF00239DF8112003F00303C3
:1041400043EA82033B80BDF8123033809DF814307F
:104150005A064FBF00239DF8152003F00F031201EC
:104160005CBF02F47C7213432B8006B0BDE8F0877D
:10417000140A003400220821014803F0D7BE00BF12
:10418000000C025610B404690089A4465DF8044B83
:10419000604710B4C4680089A4465DF8044B6047CA
:1041A000002370B58C1C04EB820500F1180653B98E
:1041B00001232246304634F8021C00F03AF9031E6F
:1041C00018BF01235B420434AC42F0D1184670BDE5
:1041D0000139072208B5042914D8DFE801F0110FCE
:1041E0000D030B000849FFF7DBFF003818BF012063
:1041F000404208BD0549F6E70549F4E70549F2E7FD
:104200000549F0E70549EEE7B62213709A221370CC
:104210007E22137062221370462213702A221370BA
:1042200030B51A4B85B0994203D94FF0FF3005B035
:1042300030BD4FF49673012591FBF3F100F11804A2
:1042400001912B4643F2010120460DF10F028DF83A
:104250000F5000F0EEF80028E7D1022343F2E80106
:10426000204601AA00F0E5F80028DED18DF80F0005
:104270002B4643F2010120460DF10F0200F0D9F860
:10428000003818BF01204042D1E700BF40190100AB
:1042900037B5044654F8183B0D469847012343F6BA
:1042A000121120460DF1070200F0BCF820B99DF86C
:1042B00007302B6003B030BD4FF0FF30FAE730B568
:1042C00000F1180485B00D46042343F23001204666
:1042D00002AA00F0A7F818B14FF0FF3005B030BDCA
:1042E0000723B5FBF3F5029B5B1B082B0393F3D964
:1042F000012543F201012B4620460DF107028DF8FE
:10430000075000F096F80028E6D1032343F2580145
:10431000204603AA00F08DF80028DDD18DF80700B3
:104320002B4643F2010120460DF1070200F081F80F
:10433000003818BF01204042D0E7000008B50B4606
:10434000B8B1B1B118460C4920F007FD4FF4206216
:104350004FF4226102844FF4F3620346C0E909126C
:104360000020064A5863C3E90B0248F2F2129A632E
:1043700008BD4FF0FF30FBE747A312704019010062
:1043800037B590F82430044653BB062903D04FF0CC
:10439000FF3003B030BD54221249FFF701FF00285F
:1043A000F5D1052220461049FFF7FAFE0028EED18C
:1043B0008DF8070001234FF440510DF1070204F17D
:1043C000180000F036F80028E1D1636998470546E7
:1043D00063699847431B132BFAD9012384F82430CF
:1043E0000020D6E7E6221370D222137090B14A68FB
:1043F0000B6842600A8903600281CA68C2600A6968
:1044000002614A6900624261044AC261044A8261EF
:1044100003B118474FF0FF30704700BF854110705F
:104420009341107010B4D0E90140A4465DF8044BEC
:10443000604710B404688068A4465DF8044B604788
:1044400000207047024B00201B680B60704700BFC4
:10445000E80B0034024B00201B680B60704700BF64
:10446000E40B003408B5034B03481960FFF727FF3E
:10447000C0B208BDE40B0034740C003408B5034B23
:1044800003481960FFF7CCFEC0B208BDE80B00344A
:10449000740C003408B50248FFF750FFC0B208BDE5
:1044A000740C003401F0D2B81FB54FF47A74009246
:1044B000CDE901340A4602230146044804F03CF9E0
:1044C000003818BF012004B010BD00BF680A0034D6
:1044D0001FB54FF47A740092CDE901340A460223E5
:1044E0000146044804F04EF8003818BF012004B01B
:1044F00010BD00BF680A00341FB51F23CDE90113AA
:10450000102301464FF4E6721E20009300F0E0FDF8
:10451000C82005B05DF804EB01F09EB8002070479C
:1045200070B50024A6B01822002111A820F087F948
:104530000DAE242221461DA8039420F080F91022FC
:104540002146304620F07BF9FF209B49FFF7D4FF3E
:1045500040F213109949FFF7CFFF1822214617A800
:10456000CDE90444CDE90644CDE90844CDE90A4447
:104570000C9420F064F9FF209149FFF7BDFF012260
:104580004021904803F0D2FC224610218D4803F0D0
:10459000CDFCC82001F060F801221021894803F009
:1045A000C5FC032001F058F840F213108649FFF7CC
:1045B000A3FF864A864B1046136001F0A5FE68B142
:1045C00040F227108349FFF797FF40F227108249F6
:1045D000FFF792FF0124204626B070BD40F227105D
:1045E0007E49FFF789FF01244FF40073CDE90434BD
:1045F0002C234FF496707A490693FFF77DFF04A9A8
:10460000724801F095FE054676494FF4A070FFF719
:1046100073FF1DB14FF4AA707349D4E740F23B1009
:104620007249FFF769FF29460322684801F064FFD9
:10463000054618B140F24F106D49C4E740F24F10E3
:104640006C49FFF759FF2B232146604807AA0795BD
:10465000CDE9083301F0FCFE054618B140F26310C5
:104660006549B0E740F263106449FFF745FF4FF436
:10467000C863214655480AAACDE90B340A9501F0D2
:104680005FFF18B140F277105D499CE740F2771068
:104690005C49FFF731FF4FF4F0714FF4487348F273
:1046A0008910CDE9171346F23843FD25CDE91903EA
:1046B0004FF49E732146454817AACDE91B5302F0DB
:1046C000C5FC18B140F28B104F497CE740F28B10CB
:1046D0004E49FFF711FF21463C4802F002FD18B198
:1046E00040F29F104A496EE740F29F104949FFF798
:1046F00003FF40F227104849FFF7FEFE474B40F208
:104700003B101193464B474912933423ADF84C307C
:10471000454B1493454B1593454B1693FFF7ECFE11
:10472000444811A9FFF762FE18B140F24F10424908
:104730004EE740F24F104149FFF7DEFE40F26310B2
:104740003F49FFF7D9FE3B4803A9FFF7A1FD18B188
:1047500040F277103B493BE740F277103A49FFF7C8
:10476000CBFE039B1BB140F28B10384930E740F27F
:104770008B103749FFF7C0FE0A2206212D48FFF7AC
:10478000FFFD18B140F29F10324921E740F29F101F
:104790003149FFF7B1FE40F2B3103049FFF7ACFEEC
:1047A00005212448FFF714FD044600285AD040F2A2
:1047B000C7102B490CE700BF4EA3127061A3127003
:1047C00073A312700018025683A31270A00C003459
:1047D0000020005897A31270CBA41270A8A31270E7
:1047E000B7A31270CBA31270DEA31270EEA31270E7
:1047F000FCA312700BA412701FA412702DA41270CF
:104800003DA412704EA4127062A4127070A41270B3
:1048100084A4127099A41270A9A41270414410705B
:104820001D451070BAA41270D1441070A9441070C4
:10483000A5441070740C0034DCA41270E7A412704C
:10484000F7A4127009A5127015A5127026A5127092
:1048500034A512704BA512705CA5127072A512706F
:1048600087A5127040F2C7101D49FFF745FE1D4B8A
:104870004FF4226220931C4B40F2DB1021931B4B20
:104880001B4922931B4BCDE90D4423931A4B2493D0
:104890004FF4F363CDE90F23FFF72EFE174B2246AB
:1048A000CDE9006316491DAB16481BF08BF940F2A9
:1048B000EF101549FFF720FE40F203201349FFF7E0
:1048C0001BFE10481BF008FA044618B140F21720EE
:1048D0000F497DE640F217200E49FFF70DFE7AE6FC
:1048E0009AA51270954410707D4410704544107064
:1048F000AFA51270654410705544107038241370C1
:10490000A00C0034EC0B0034C4A51270D8A51270B2
:10491000EEA51270FDA5127007B5002206490346E8
:104920000A6006480121009201F072FE003818BFAB
:10493000012003B000BD00BF9C0C0034A00C00346B
:1049400000220121014801F087BE00BFA00C003405
:1049500008B503481BF068FA003818BF012008BDED
:10496000EC0B0034024A136801331360704700BF38
:104970009C0C0034012908B507D002290DD089B953
:10498000BDE8084008481BF065BA07481BF05EFA0E
:10499000BDE8084004481BF057BA0348BDE808408A
:1049A0001BF056BA08BD00BFEC0B00347047000086
:1049B00010B5324C70B3012323704FF400513048CE
:1049C00003F0AEFA002842D00A2000F045FE002392
:1049D0004FF400612B48237003F0A2FA0221044631
:1049E000294803F09DFA002845D0B4FA84F46409FC
:1049F000A4004021224803F093FA4FF4005100280C
:104A00001F4808BF022403F08BFA002818BF0124B6
:104A1000204610BD2378012BCFD04FF40051184809
:104A200003F07EFA88B94021154803F079FA60B1A5
:104A30000221154803F074FA38B14FF400611148AF
:104A400003F06EFA08B1012323700024E0E740214F
:104A50000B4803F065FA0028B6D002210A4803F09B
:104A60005FFA0028B0D04FF40061064803F058FA0E
:104A70000028A9D0D1E70324BBE700BF0000003421
:104A80000008025600180256000C025608B5012212
:104A90004FF48061054803F049FABDE8084001225F
:104AA0004FF48061024803F041BA00BF001802567B
:104AB0000010025610B5E4B0002104464FF4C8724D
:104AC00068461FF0BCFE4FF080720023CDE9002342
:104AD0004FF00073469306F093F9B0FBF4F0219089
:104AE000684604F01FFD64B010BD0000054B1A8934
:104AF0009988187610B910460A46014659839A8358
:104B0000704700BFAC0C00342DE9F743DFF8A890E4
:104B10001F4699F8183004460E46BDF828504BB988
:104B2000D9F808303446013B9BB2991A1B1A3A4611
:104B30008EB29FB24FF440331D49A2EB04084B6084
:104B4000D9F804300846013BA3EB0803CB6002F020
:104B500021FF40F20312C5F34513534340F20F22E5
:104B6000D9F80400213300FB064005F01F0454432C
:104B7000ED0A554317349B09A409173544EA032469
:104B8000AD09BF1B0B4A44EA0544013702EB400262
:104B900044F07F41009708F10103054802F037FF18
:104BA0003221034803B0BDE8F04302F04ABF00BF22
:104BB000100B003400000090AC0C00342DE9F743DA
:104BC000DFF874901C4699F81830074688460A9E0C
:104BD00053B9D9F808304746013B9BB2991A1B1AC2
:104BE00022461FFA81F89CB200231149D51B4B6065
:104BF000D9F804300846013B5B1BCB6002F0CAFECB
:104C0000D9F80430A4EB080403FB0877094A0134FF
:104C1000314600946B1C02EB4702054802F0F7FE98
:104C20003221034803B0BDE8F04302F00ABF00BFE1
:104C3000100B003400000090AC0C003410B5074C91
:104C4000237E23B9A368013B1B1A084699B2636807
:104C500003FB0100024B23F8102010BDAC0C003404
:104C600000000090074A137E23B99368013B1B1A8A
:104C7000084699B2536803FB0100034B33F8100058
:104C8000704700BFAC0C00340000009007B5002155
:104C9000064A938B528B013B013A00909BB2084627
:104CA00092B2FFF731FF03B000BD00BFAC0C00347F
:104CB00070B596B03422002109A81FF0C0FD102263
:104CC000002105A81FF0BBFD6A46A64B03F10805AD
:104CD000144618685968083303C4AB422246F7D11A
:104CE00018689B880425A38001234FF48066206008
:104CF0004FF400749C4804A90693049502F07CFFCD
:104D00009A4804A9049602F077FF04A998480494ED
:104D100002F072FF642000F09FFC2146944803F0EB
:104D2000FFF831460446914803F0FAF8003818BFFE
:104D30000120003C18BF0124294644EA40048A4867
:104D400003F0EEF8002840F09880E4B24FF0040E33
:104D500002230022CDE904E30E2503234FF48066ED
:104D6000814804A9CDE90623089502F045FF7F4854
:104D700004A90496089502F03FFF4FF400737C48A5
:104D800004A90493089502F037FF44F2423216ABAF
:104D900003EB440434F8583C764C9342238073D19F
:104DA0004FF488734FF4F0764FF0011CC4E90163AF
:104DB000714BC4E903C3233B636100236F4DE18959
:104DC0002B61A38928465A1E6A614A1EAA61228A5B
:104DD0001A44531EEB61638A0B44591E29626168B1
:104DE0000A44511E6962A1680B44591EA962A18A36
:104DF00001390A44EA62E28A013A13442B6304F05F
:104E00001FF9284604F0C2F844F242322388934244
:104E100040F08B805A48FFF74DFE0420FF2100250B
:104E2000A3686268CDE90D014FF480640521CDE9E6
:104E30000A25CDE91041CDE9125209A92A464F4869
:104E40000C93149309950F95ADF854508DF8565066
:104E500004F028F92A464B49484804F05CF92846F2
:104E6000FFF744FE4FF6FF70FFF710FF0122082105
:104E70003D4803F05BF816B070BD44F00404072C05
:104E80007FF463AF062461E747F2840293420CD1BA
:104E90004FF4F0734FF448704FF00115C4E901036B
:104EA000394BC4E90353394B86E747F21602934264
:104EB00009D14FF41671364B6660C4E90213354BC5
:104EC0002361354B78E747F21802934206D14FF43D
:104ED000A0624FF44873C4E901236EE744F28432C0
:104EE00093420CD14FF4F0734FF4487CDFF8C4E0E8
:104EF000C4E901C3294BC4E903E3294B5CE741F250
:104F0000180293427FF459AF4FF448734FF4A065F1
:104F1000C4E901534FF00A13224EC4E90363A3F519
:104F2000E02363614FF0805348E747F284029342E5
:104F300001D11D486FE747F21602934201D11B4889
:104F400069E747F2180293423FF467AF44F28432B4
:104F50009342EED041F2180293427FF45EAF1448C0
:104F600059E700BFC09D12700000025600040256AF
:104F700000180256AC0C0034280008006C090034FC
:104F800040548900000000902E001700D200160047
:104F9000140003008C001400A0000C00300020005E
:104FA0000D0003008C000A0055A0FC01005A6202AB
:104FB00040A5AE0258002800F7B56AB1074E778BBE
:104FC000874209D3B68B8E4206D3441E22440093F7
:104FD00092B20B46FFF798FD03B0F0BDAC0C003465
:104FE0002DE9F04F1D4615F0070618BF012685B0C4
:104FF0009DF8383006EBD5060293BDF83C30A2F19F
:10500000200403936B0816FB03F6182D83460F4606
:10501000F6B2E4B242D006D80C2D0AD0102D39D009
:1050200005B0BDE8F08F202DFAD1234B03EBC4145B
:1050300002E0224B05FB0434BA46A319DFF88C903A
:105040000193019B9C42EBD00AF1080814F8016B14
:105050001FFA88F8330626D5039A51465846FFF7BB
:10506000EDFDB9F81C200AF101011FFA81FA730065
:105070005245DEB2D4D9AAEB0702AA4219D1B9F837
:105080001A300BF101001FFA80FB5B45C8D9B84606
:10509000C246D6E70A4B03EB0414CDE72422094BA2
:1050A00002FB0434C8E7029B002BDAD1064B1A88B6
:1050B000D3E7C245CED1EBE78C2613705869137045
:1050C000686313700C56137004000034AC0C003489
:1050D0002DE9F04F1F4604460D464FF0000B85B0FA
:1050E000024496B20F9A0F449DF83830BDF84090B4
:1050F000BFB202F1FF385FFA80FA18F8012FA2F16F
:1051000020015E2902D905B0BDE8F08FB44222BF6C
:10511000ED18ADB25446BD42F5D220462946CDE940
:1051200000B90393FFF75CFF039B04EB5304A4B2A5
:10513000E3E7000008B50749074808F0B1F938B9B6
:105140000649054807F0E8FE003818BF012008BDF1
:105150000120FCE7E40C0034F0080034CC0C0034EF
:1051600013B54FF48014134600940A4601460948CB
:1051700007F022FD58B9074808F064FA042801D066
:10518000013CF8D1B4FA84F0400902B010BD01200E
:10519000FBE700BFF008003413B54FF4801413464A
:1051A00000940A460146094807F0E6FD58B9074849
:1051B00008F048FA042801D0013CF8D1B4FA84F090
:1051C000400902B010BD0120FBE700BFF008003429
:1051D00008B50749074808F063F938B90649054892
:1051E00007F09AFE003818BF012008BD0120FCE737
:1051F000200D003474080034080D003413B54FF44A
:105200008014134600940A460146094807F0D4FC6E
:1052100058B9074808F016FA042801D0013CF8D123
:10522000B4FA84F0400902B010BD0120FBE700BFD2
:105230007408003413B54FF48014134600940A46E2
:105240000146094807F098FD58B9074808F0FAF9EF
:10525000042801D0013CF8D1B4FA84F0400902B02E
:1052600010BD0120FBE700BF7408003408B5074BF0
:10527000022218680023806819461FF0D5F8BDE89F
:10528000084001220249034809F016BF38020034E1
:105290000E0E0034940700340268184B10B49A4282
:1052A00028D1174AB2F900101388002907DB1549E5
:1052B000580409780FD50A2908D000231380012249
:1052C000104911485DF8044B09F0F6BE6FEA4343FC
:1052D0006FEA5343F2E70D2902D143F48043EDE72F
:1052E000C3F30D0001339BB2084CC72B215413802C
:1052F000E3D8E4E75DF8044B704700BF00100052AC
:10530000440D00340E0E003494070034460D003472
:1053100007B54FF6FF730190012201A9024809F079
:105320005CFD019803B000BD940700341E491F4A7C
:10533000D1F88C3010B543F44063C1F88C30536B16
:1053400023F0E05343F0805353630022184BC3F81B
:105350008022C3F88422C3F88822C3F88C22C3F8C1
:105360009022C3F89422C3F898220122114B8B603B
:10537000114BC3F8782AD3F878028C680F4803F5EC
:10538000805304610069C3F87822D1F888300C4A50
:1053900043F47003C1F88830D2F8883043F47003C6
:1053A000C2F8883010BD00BF00ED00E000EF00E063
:1053B00000E100E0000410700080025600800056FA
:1053C00000ED02E06E4BF0B51A6A02F44012B2F53D
:1053D000001F00F0B98006D862B99A6C694BC2F31D
:1053E000C112D34003E0B2F5401F09D00023664A42
:1053F0001360F0BD5B6C9F0500F1A880634BF6E77E
:10540000D3F8C42002F04052B2F1805F29D0B2F14B
:10541000005F35D0002A42D1D3F880100E0101F090
:10542000E04000F19A80D3F88440D3F88820C1F39B
:105430000B2524F07F440746B7F1005FC2F3C26634
:10544000C1F30550C2F302624ED000F28180002FFA
:105450003AD000274A4B5B6C9B0554BF4B4B4C4BDF
:1054600038E0D3F890100D0101F0E04075D4D3F886
:105470009440C1F30B25D3F8982024F07F44DAE759
:10548000D3F8A0100C0101F0E04066D4D3F8A4409A
:10549000C1F30B25D3F8A82024F07F44CBE7D3F841
:1054A000B0100A0101F0E04057D4D3F8B440C1F382
:1054B0000B25D3F8B82024F07F44BCE7024606460B
:1054C000044605464FF000672D4B996C2D4BC1F3F8
:1054D000C111CB404FB12A4AD2F8C420C2F30742CF
:1054E0000132B3FBF2F382E72A4B07EE104AB8EE23
:1054F000C76A07EE105A07EE903ADFED276AB8EE5A
:10550000C77AF8EEE77AA6EE267A67EE877A07EE94
:10551000100AB8EEC77AC7EE876A07EE906AB8EE4F
:10552000E77A07EE902AF8EEE77A27EE277AC6EEBA
:10553000877AFCEEE77A17EE903ACCE70023D4E7BF
:10554000144BC8E70023C6E7124B50E7104B4EE759
:10555000B7F1405FF2D1114BC7E7B0F1005FEFD078
:1055600009D80028AAD000224FF00067164614463A
:10557000154610466EE7B0F1405FE3D1074BAAE74E
:10558000008002560090D0030800003400093D005E
:105590000024F400006CDC02000080330080BB00BB
:1055A0006DED81CF00B5FFF70DFF054B5DF804EB06
:1055B00018689FEC100A9FE80E90FDEC81CF7447AD
:1055C0000800003438B50F4B05461A780AB9012097
:1055D00038BD4FF47A73B3FBF2F30B4A1068B0FB9B
:1055E000F3F000F0FBFC04460028F0D10F2DEED8BC
:1055F000024629464FF0FF3000F0B2FC034B204634
:105600001D60E5E70C000034080000341000003491
:1056100010B5032000F092FCFFF7D4FE0F20FFF737
:10562000D1FF044618B9FEF795F8204610BD0124B5
:10563000FBE70000034A044B11681B780B4413601E
:10564000704700BF100E00340C000034014B186886
:10565000704700BF100E003438B50446FFF7F6FF60
:105660000546631C1EBF044B1B78E418FFF7EEFFD2
:10567000431BA342FAD338BD0C000034806800F00D
:10568000010070478068C0F38000704738B5044659
:10569000002800F0A280856D25B9FEF773F8E56556
:1056A00084F8545023681846FFF7E8FF002840F0BC
:1056B00094809A681846920041BF9A6822F000527E
:1056C00022F03F029A60FFF7DDFFA26D02F01002A8
:1056D00002437ED1A26D606822F4817242F0020220
:1056E000A265626B217F0243607D012942EA40325C
:1056F00042EA014202BF216A01F1FF3142EA41421E
:10570000616A21B1A06A01F4787101430A43D86843
:10571000334901401143D9601A69E16A22F42042F9
:105720000A431A611846FFF7ADFF9A6802F00802B3
:10573000024333D1DA68217D22F4804222F0030251
:1057400042EA8132216B0A43DA601A6FA1686FF373
:105750000D020A43003918BF01211A671A6F22F09F
:10576000004242EAC1721A6794F83C20012A2CD107
:10577000226C1869511ED4E911252A4342EA0142DC
:10578000E16C0A43174901400A4342F001021A61E1
:105790001A69A16B22F070420A431A610020E26884
:1057A000012A05BF196BA2691A6B02F1FF3206BF0D
:1057B00021F00F010A4322F00F021A63A36D23F0B8
:1057C000030343F00103A36538BD1A6922F0010207
:1057D000DDE7A36D43F01003A3650120F4E700BFEC
:1057E00013C0F0FF1EF800FC354A2DE9F0410569B1
:1057F0009768082D04460E4607F01F0715D040F2A3
:105800002123FB40D9070BD50368DB6813F0010F98
:105810000AD00120A36D43F02003A365BDE8F08109
:10582000936813F4404FF3E70425FFF70FFF80461A
:1058300023681A682A4225D0A26D42F40072A2653C
:10584000DA6812F4406F0FD1627D6AB91A681607E0
:105850000AD5A26D22F48072A265A26DD0045EBF4B
:10586000A26D42F00102A265164A934204D140F2B1
:105870002122FA40D1071BD5DA68082D1BD11D6003
:105880000020CBE7721CD4D0FFF7E0FEA0EB0800AD
:10589000B04201D8002ECBD123681B682B40C7D162
:1058A000A26D032042F00402A26584F85430B5E7EB
:1058B000054AD268E1E75204E2D40C221A60DFE71D
:1058C0000023025000210250002002500368186C8F
:1058D000704700000368F7B504461846FFF7CEFE90
:1058E000002840F0418194F85420012A00F03E81C4
:1058F0000122184684F85420FFF7C4FE002840F027
:105900002D811F27DD6908680095009D00F01F00AC
:1059100082402A434D68DA61AE0903F1300C06F08B
:105920000C065CF8062005F01F05AF4022EA0702CE
:10593000A84010434CF806001846FFF7A3FE9A68EB
:1059400002F00802024363D10A68072702F01F022F
:10595000551E132D28BF0022854D03F1140C55F858
:1059600022508868EE0D06F004065CF80620C5F3A8
:105970000455AF4022EA0702A84002434CF8062033
:10598000D1F810C0DD68BCF1040F0F6803F15002BC
:1059900000F0918052F82C60486926F0784646EA7B
:1059A000C76642F82C60D1F810C003F1600757F8C1
:1059B0002C60C5F381056D00A840B50DAD052843E9
:1059C00047F82C000D69CE6952F8250020F0807050
:1059D000304342F825000E690D7E52F826006F1EF6
:1059E0007D427D4120F0806040EA856042F82600DB
:1059F0004D7E0E6905F1FF3C52F82600DCF10005F2
:105A000045EB0C0520F0007040EA456042F82600A6
:105A10001846FFF733FE0A68002838D102F01F004D
:105A2000CD68411E132928BF0020514ED3F8C01065
:105A300056F8206005F01807C6F3130021EA0001AC
:105A40004C48F84030400143C3F8C0104A498D42E9
:105A50001DD1132A08D949498A4205D048498A42AA
:105A600002D048498A424ED1474D14265D1B18BFCB
:105A700001254648D1B206FB0500415CD86901907A
:105A800001F01F000121019D81402943D96112F4D9
:105A90007F4F0AD03E493B4F8868BA42D3F8D06066
:105AA00000F0A0753CD146022FD50020002384F8D9
:105AB000543003B0F0BD186D87EAD067FE0602BF10
:105AC000186E6FF3150018665D6D086880EAD56082
:105AD000C50602BF586E6FF31500586695680868D2
:105AE00080EAD560C00602BF986E6FF31500986615
:105AF000D0680A6882EAD062D70602BFDA6E6FF316
:105B00001502DA6684E7FF21B8E71F4A9342CCD139
:105B10008B6823F0A0732B4343F480038B60C4E7AE
:105B2000164FBA420BD1C001BFD41A4A9342BCD11E
:105B30008B6823F0A0732B4343F08073EEE710498A
:105B40008A42B2D17207B0D4124A9342ADD1D3F88F
:105B5000D02042F00402C3F8D020A6E7A36D10467F
:105B600043F02003A365A1E70120A2E70220A0E7FC
:105B7000F46D1370FFFF0F000000FF4310080001D9
:105B8000110804001104400000200250CC6D137075
:105B90000023025000210250036870B504461846E5
:105BA000FFF770FD9A6802F00802024301D100205D
:105BB00070BDDA68920138D540F20112A08A904295
:105BC00033D1254A19684E0623D5402201211A6097
:105BD0001846FFF757FD40B19A6895075FBF9A686E
:105BE00022F03F0242F010029A6001291FD10425E1
:105BF000FFF72CFD064623689B682B42D7D0FFF7A2
:105C000025FD801B0528F6D923689B682B42F2D01E
:105C100001E0013AD6D1A36D012043F01003A36542
:105C2000E36D43F00103E365C2E70229D0D19A682E
:105C3000100708D59A6892075FBF9A6822F03F0262
:105C400042F020029A60022903D00329CFD10C250B
:105C5000CEE70825CCE700BF010040A3026838B5B5
:105C600004461046FFF70AFD08B1002038BD9168D0
:105C7000164B194209D0A36D012043F01003A36510
:105C8000E36D43F00103E365F0E7936823F03F031E
:105C900043F001039360FFF7D9FC054622681368BF
:105CA000DB07E2D41046FFF7E9FC28B9936823F03C
:105CB0003F0343F001039360FFF7C8FC401B022839
:105CC000ECD923681B68DA07E8D4D4E73F000080EA
:105CD000314B70B5044600689E68FFF7D3FC05465B
:105CE000002856D194F85430012B52D0012320467D
:105CF00084F85430FFF7B2FF002847D1A36D274D39
:105D000023F4706323F0010343F48073A3652368D5
:105D100006F01F01AB421A4601D1214A19B9A56DFF
:105D200025F48015A565A56D15F480551CBFE56D9E
:105D300025F00605E5651C251D600025934284F8C5
:105D4000545005D040F2212525FA01F1C9070FD59D
:105D5000DA68920141BFA26D22F4405242F48052AF
:105D6000A2659A6822F03F0242F004029A6070BD78
:105D7000A36D43F48013A365D3689B01F7D5A36D8E
:105D800023F4405343F48053A365F0E784F8545060
:105D9000EDE70220EBE700BF002302500021025094
:105DA0000020025038B50368044618469A68FFF789
:105DB00065FC08B9002038BD9107FBD49A6802F051
:105DC0000D02012A17D19A6822F03F0242F0020226
:105DD0009A6003221A60FFF739FC054623689B6826
:105DE000DB07E7D5FFF732FC401B0228F6D9236812
:105DF0009B68DA07F2D5A36D012043F01003A36579
:105E0000E36D43F00103E365D5E710B590F8543036
:105E10000446012B19D00123032180F85430FFF7E9
:105E2000BBFE20B10120002384F8543010BD204671
:105E3000FFF7B8FF0028F5D1A36D23F4885323F0B2
:105E4000010343F00103A365EDE70220EEE780685C
:105E500000F0010070478068C0F3800070470000C8
:105E600030B590F854200346012A99B05ED0012243
:105E700080F85420002200682D4C1692A042179200
:105E800011D1FFF7E4FFB8B92A48FFF7E4FF024653
:105E90002748FFF7E0FF104314D09A6D012042F02D
:105EA00020029A652AE0996D83F8542041F0200180
:105EB0009965012019B030BD1E48FFF7C8FF0028C2
:105EC000E2D0F6E70C681C4AE4B190684D6820F413
:105ED0004040284390601648FFF7B9FF0546154833
